{
  "contractName": "Betting",
  "abi": [
    {
      "constant": true,
      "inputs": [
        {
          "internalType": "bool",
          "name": "color",
          "type": "bool"
        },
        {
          "internalType": "bool",
          "name": "result",
          "type": "bool"
        }
      ],
      "name": "winOrLose",
      "outputs": [
        {
          "internalType": "bool",
          "name": "",
          "type": "bool"
        }
      ],
      "payable": false,
      "stateMutability": "pure",
      "type": "function"
    },
    {
      "constant": false,
      "inputs": [
        {
          "internalType": "bool",
          "name": "color",
          "type": "bool"
        }
      ],
      "name": "bet",
      "outputs": [
        {
          "internalType": "bool",
          "name": "",
          "type": "bool"
        }
      ],
      "payable": true,
      "stateMutability": "payable",
      "type": "function"
    },
    {
      "constant": true,
      "inputs": [],
      "name": "getPlayerInfo",
      "outputs": [
        {
          "internalType": "uint256[4]",
          "name": "",
          "type": "uint256[4]"
        }
      ],
      "payable": false,
      "stateMutability": "view",
      "type": "function"
    }
  ],
  "bytecode": "0x608060405234801561001057600080fd5b5061051e806100206000396000f3fe6080604052600436106100345760003560e01c806308d55b9014610039578063523afb0d1461009a578063d1df81df146100e2575b600080fd5b34801561004557600080fd5b506100806004803603604081101561005c57600080fd5b81019080803515159060200190929190803515159060200190929190505050610135565b604051808215151515815260200191505060405180910390f35b6100c8600480360360208110156100b057600080fd5b81019080803515159060200190929190505050610157565b604051808215151515815260200191505060405180910390f35b3480156100ee57600080fd5b506100f76103a6565b6040518082600460200280838360005b83811015610122578082015181840152602081019050610107565b5050505090500191505060405180910390f35b6000811515831515141561014c5760019050610151565b600090505b92915050565b6000343373ffffffffffffffffffffffffffffffffffffffff1631116101e5576040517f08c379a00000000000000000000000000000000000000000000000000000000081526004018080602001828103825260128152602001807f496e73756666696369656e742066756e6473000000000000000000000000000081525060200191505060405180910390fd5b60006101ef61046c565b905060006101fd8483610135565b905080156102fa573373ffffffffffffffffffffffffffffffffffffffff166108fc600234029081150290604051600060405180830381858888f1935050505015801561024e573d6000803e3d6000fd5b506000803373ffffffffffffffffffffffffffffffffffffffff1673ffffffffffffffffffffffffffffffffffffffff16815260200190815260200160002060000160008154809291906001019190505550346000803373ffffffffffffffffffffffffffffffffffffffff1673ffffffffffffffffffffffffffffffffffffffff168152602001908152602001600020600101600082825401925050819055506001925050506103a1565b6000803373ffffffffffffffffffffffffffffffffffffffff1673ffffffffffffffffffffffffffffffffffffffff16815260200190815260200160002060020160008154809291906001019190505550346000803373ffffffffffffffffffffffffffffffffffffffff1673ffffffffffffffffffffffffffffffffffffffff168152602001908152602001600020600301600082825401925050819055506000925050505b919050565b6103ae61049f565b6103b66104c1565b6000803373ffffffffffffffffffffffffffffffffffffffff1673ffffffffffffffffffffffffffffffffffffffff168152602001908152602001600020604051806080016040529081600082015481526020016001820154815260200160028201548152602001600382015481525050905061043161049f565b604051806080016040528083600001518152602001836040015181526020018360200151815260200183606001518152509050809250505090565b6000806002600143034060001c8161048057fe5b069050600181141561049657600191505061049c565b60009150505b90565b6040518060800160405280600490602082028038833980820191505090505090565b604051806080016040528060008152602001600081526020016000815260200160008152509056fea265627a7a72315820ec9d5db2f9acee76b04469c974326516301738d526bcce2f77c6146f5250fca964736f6c63430005100032",
  "source": "pragma solidity ^0.5.0;\n\ncontract Betting {\n\n  struct Player{\n    uint playerWinCount;\n    uint playerWinAmount;\n    uint playerLossCount;\n    uint playerLossAmount;\n  }\n  \n  mapping (address => Player) players;\n\n\n\n    function greenOrRed() private view returns (bool) {\n        uint result = uint(blockhash(block.number-1))%2;\n        if(result == 1){\n          return true;\n        } else{\n          return false;\n        }\n    }\n      function winOrLose(bool color, bool result) public pure returns (bool) {\n          if(color == result){\n            return true;\n          }\n          else {\n            return false;\n          }\n      }\n\n      function bet(bool color) external payable returns (bool) {\n        require(msg.sender.balance > msg.value, \"Insufficient funds\");\n        bool result = greenOrRed();\n\n        bool win = winOrLose(color, result);\n        if (win) {\n            // Player won \n            msg.sender.transfer(msg.value * 2); \n            players[msg.sender].playerWinCount++;\n            players[msg.sender].playerWinAmount+=msg.value;\n            //emit playerWon(players[msg.sender].wins,players[msg.sender].losses);\n            return (true);\n        } else {\n            players[msg.sender].playerLossCount++;\n            players[msg.sender].playerLossAmount+=msg.value;\n            //emit playerLost(players[msg.sender].wins,players[msg.sender].losses);\n            return (false);\n        }\n    }\n\n    function getPlayerInfo() external view returns(uint[4] memory) {\n        Player memory player_info = players[msg.sender];\n        uint[4] memory result = [player_info.playerWinCount,player_info.playerLossCount,player_info.playerWinAmount,player_info.playerLossAmount];\n        return result;\n    }\n}\n\n\n",
  "sourcePath": "/home/user/Desktop/metamask-demo-app/contracts/Betting.sol",
  "compiler": {
    "name": "solc",
    "version": "0.5.16+commit.9c3226ce.Emscripten.clang"
  },
  "schemaVersion": "3.4.1",
  "updatedAt": "2022-09-01T05:30:20.557Z",
  "networkType": "ethereum",
  "devdoc": {
    "methods": {}
  },
  "userdoc": {
    "methods": {}
  }
}